:020000040000FA
:1000000080311F28FF3F08008031200020080B3A74
:1000100003191C28911E09008831372080312000E7
:1000200091122100491C090020005108033A031DC8
:1000300009000430D1000900B831042809008231D8
:10004000212A852922000D122100491C2B28C025B8
:1000500080312100491020004D08023A031D342848
:10006000220061082100D90020003B0B4A28210012
:100070005A08033A031D4A2820004D08033A031981
:100080004A284D08043A03194A2821000230DA01AF
:100090002000BB0020004D082100DA005A28430848
:1000A0007D3A031D69280330D1006928540B692863
:1000B000D101692820005108003A03196928023A41
:1000C00003194F28013A03195628073A03196928DA
:1000D00069282100DE0A9029B425803175082100A5
:1000E000B2007408B100B11C7E283208FF39923A80
:1000F000031D7E28230046132200E8142000200858
:100100000A3A031D87289031D8208031A928711D13
:1001100098280A30711163278031E9248031210049
:10012000EE01EE0A20004030D201D3012100DF00B1
:10013000F11FA9280A30F113200063278031E92438
:10014000803121302100EE0020004030D301210019
:10015000DF002100D40A20005208023A031DB32810
:100160008931E22180312000BF08031D6928400B3E
:1001700069282008031D692823004613461722001A
:10018000E8146928200020080B3A03190E292008DA
:100190000A3A031D01290E2952080319D1280830F3
:1001A000D22850302200E1000E2902305202031CF6
:1001B000D1284930FE2803305202031CD128CA300E
:1001C000FE2804305202031CD1288B30FE28053053
:1001D0005202031CD1284C30FE2806305202031C68
:1001E000D1280D30FE2807305202031CD1288E3052
:1001F000FE2808305202031CD128CF302200E10033
:100200000E295408FE3E031C0E29840012300402FD
:1002100003180E2990310435003E82002000540B53
:1002200015292100D401F826803196238031D4008D
:100230006928200020080B3A031926292100691E8D
:10024000262994312D2480312100D20A701F69287B
:10025000FE3020003002003003192F02031C6928F1
:1002600020080A3A031969280130A0006928AE2540
:1002700080312100CB1C49290A30C80A4802031CDE
:1002800049292000CD012100C201D301D30ACB109E
:10029000C8014B1C58290A30C60A4602031C5829BB
:1002A000972580312000CD012100C2014B10C601ED
:1002B0005408323A031D6429200020080B3A031920
:1002C0006429953163258031F11C8229403020005A
:1002D0005B0203187F2923009518822920005B0800
:1002E000922180317608750403197C29F4012000DD
:1002F0005B088E31E92680312000DB0A8229F1106B
:10030000A32180312100DE01902921005E088400B4
:10031000083004020318822998310435003E820017
:1003200064000800F90068238031F700F801F80044
:10033000F701790A6823F7070318F80A7808F60026
:100340007708F50008002000FF30DF01B101B2019D
:10035000AD00AE003830DB0040305B020318DF290F
:100360005B08922180319C2780310319BC295F35BD
:10037000383E7E278031C4295F35D23E8600013069
:1003800087005F35383E86278F31AA278031403F6E
:10039000FA00413FFB003202031DD0297A083102E6
:1003A0000318DB295F35383E860001308700403F67
:1003B000B100413FB200DF0ADB0ADB0AAC29303072
:1003C000DF01DB0038305B020318162A5B0892213C
:1003D00080319C2780310319F2295F35283E7E2722
:1003E0008031FA295F35303E8600013087005F3565
:1003F000283E86275F358F319A278031403FFA00AB
:10040000413FFB002E087B02031D082A2D087A02BB
:100410000318122A5F358F319A278031403FAD0093
:10042000413FAE00DF0ADB0ADB0AE2292E088F31EA
:100430009F278031200032088F31BA270318BE0A67
:1004400008002130F001F1018400003085004030C7
:10045000903146208031A0308400003085004C303F
:1004600090314620803120308400013085003930C1
:10047000903146208031D2308400013085001A301E
:10048000903146208031FF30EF002100EC00ED007C
:100490000130EE004C3084009030850059308600E9
:1004A0000130870011309F31FA27803105308400F8
:1004B00088308500A03086000130870032309F31BF
:1004C000FA2780315D30840090308500203086002E
:1004D0000230870039309F31FA278031963084000E
:1004E00090308500A03086000230870042309F3176
:1004F000FA27803120007C2A8A2280316400200083
:1005000091100B178B172000911C832A911021202A
:100510008031832A6623803122000E1031258031FC
:1005200007302000A00023001F1666238031BB2A5D
:100530002200EF01C72A0A30B82A1530B82A203025
:10054000B82A2C30B82A3830B82A4530B82A523068
:10055000B82A6030B82A6E30B82A7D30B82A8C307C
:10056000B82A9C30B82AAD30B82ABE30B82AD0306C
:100570002200EF00C72A0030682380318400103049
:1005800004020318B72A90310435243E820001305A
:10059000682380312100EF0020000D19D22A143089
:1005A0002100EF07FF302100DE002000DD012000E8
:1005B0005C08FF3A03192B2B8E1FE42A46305D029C
:1005C0000318E82ADD0AE82A46305D02031CDD0133
:1005D000911CD72A91104F3021005E02031C272B5B
:1005E000DE0120005C0822006F06031D1E2B210087
:1005F0004630EF0120005D020318172BDD018E1F2E
:10060000062B323021006F02031CEF0A200032302B
:10061000DD0A5D02031CFF2A053021006F0203186A
:10062000172B09302000A00022000E141C2B0830CC
:100630002000A00022000E102100EF0121006F0811
:100640000319242BEF03282B2000DC0A282BDE0AB9
:1006500066238031D72A30258031822380312000E3
:100660002008093A031D4C2B0030682380312000FC
:10067000DC005C1C462B6623803120005C08FF3EBA
:10068000F400003071238031662380310A3020006D
:1006900063278031E92480312008083A031D0800CF
:1006A0000030682380312000DC005C18602B66235A
:1006B000803120005C0AF400003071238031662311
:1006C0000B302000A000B8310028080064000800AA
:1006D000F4002300910092011513951315141308CB
:1006E0000800F50023009100920174089300940122
:1006F00015139513151555309600AA3096009514CC
:10070000151108002100EE01EE0A20003C30D20154
:10071000D3012400A0006430A101A4007D30A50114
:10072000A6009630A701AA00AB010800E80121004D
:100730006C0A03196D0A0319A02BEC0A0319ED0AC0
:100740002000C808031DE62C210041080319562C7F
:10075000422C6B278031E92480310330C101210014
:10076000C1006008F0390319562C5F080319562C94
:100770005F087F3A0319562C5F087E3A0319562CFE
:100780002000E9010230E90A69020318562CC22B45
:100790006B278031E92480310430C101FF2B200018
:1007A00044030319562C4208023A031DDC2B4B0864
:1007B000A3278031E92480312100C10120004408B1
:1007C000033A0319562CC401562C20004403031984
:1007D000562C4408033A031DFA2B4208033A031D22
:1007E000F72B20004B08A3278031E924803121001A
:1007F000C101562CA8278031E92480310630210020
:10080000C100562C01306D02F53003196C0203183B
:10081000142C20004208CB004108CA00A8278031D0
:10082000E9248031C101FE2BFF3095278031562C01
:1008300001306D02F53003196C02031C352C6C0A73
:1008400003196D0A0319352CFF30952780314208B2
:10085000033A031D562C49084206031D562C4B082B
:10086000A3278031E9248031562C20004408031945
:10087000ED2B4408043A0319ED2B4408033A031DF9
:10088000562CED2B4108013A0319A92B033A031901
:10089000C82B013A0319CF2B073A0319E52B013A6C
:1008A0000319022C033A0319182CF12B2000C80855
:1008B000031D7D2C42084906031D632C21004308BB
:1008C000FF3A03197D2C20004908C2004235203E22
:1008D000860001308700403FA900413FAA00210067
:1008E00043082000C100FF302100C30020002A0877
:1008F0002904031D7D2CC801C80A20002A082904E8
:100900000319E62C220043084204031DD82C2000C2
:100910005C278031FD248031462780314231010837
:10092000E4000730E436890B922C641C992C1430B7
:100930009A2C0D30E7005C278031FD24803146275A
:1009400080314231403FE400413FE500E6005C2752
:100950008031FD24803174082907860075082A3DFE
:1009600087000108FA006608FB0067082A25803125
:1009700020005C278031FD248031462780314431BE
:10098000403F2200C200413FC3002000C10A42088C
:10099000A03E8600013087000108F40041081225BE
:1009A0008031C1000A302200C2020030C33BE62C75
:1009B0000A30C2020030C33B43084204031DE42C4A
:1009C0002000410AE800E62C2000E8012000680829
:1009D0000800003075020430031974020318F92C62
:1009E00074082000C90076082100C3002000C80157
:1009F00008002000C801C80A0800F801F901741CA9
:100A0000052D7608F8077708F93DF635F70DF53628
:100A1000F40C75087404031DFF2C7908F5007808A0
:100A2000F4000800F6000830F700F8017608F50039
:100A30000730F536890B192D78357504F800F63531
:100A400074087802031C262D7408F802F70B162D83
:100A500078080800E1007A08F4007B08F500592DB9
:100A6000632D7B30210099000B309700D230950028
:100A7000313020009B004C309C00C2302200970097
:100A80008C018D018E01033021008C00CF308D0050
:100A900082308E00FF309000403023008C008D01AA
:100AA00024008D019001903021009E0001309D00B6
:100AB000080023009E169E159A0174082100C400A8
:100AC000C201C20A0800C801C80A852580318225F2
:100AD0008031F4017408DF3E8600FF308701810019
:100AE0007408513E860001308700FF3081000830D5
:100AF000F40A7402031C6A2D20000030AB01AC0123
:100B0000C70508002000CD01972DA0302200A000CD
:100B10000230A1002030A2000230A300CC30A4009B
:100B20000130A5005330A6000230A70008002300C2
:100B30009D131E121E159F15CF309B009C019F1008
:100B40001F109E119D111D169E1220009112210052
:100B500091160B178B1723009D17080020004408DF
:100B6000043A0319C401080020002C08F7002B08E0
:100B7000F600AB01AC017708F5007608F400080038
:100B80002200ED01EE0120004D08003A03198E2EDF
:100B9000013A0319D82D033A0319EE2D013A03192E
:100BA000F32D073A03190A2E023A0319722E8E2EDC
:100BB0004C08553A031DE72D0230CD002100420BB1
:100BC0000800440823009A002100C201080097256C
:100BD0002000CD012100D301D30A0800CD012B163E
:100BE0004C088831D328E330ED0021004E08200066
:100BF000ED0246086D07EE008600013087004C08C4
:100C000081002100CB14C801CE0B08000430200065
:100C1000CD0008004C082300EB0021004F08143AD7
:100C2000031D172E230062082200ED00EE012200B2
:100C3000EB01EC0120004608ED00EE016E082200F9
:100C40006C02031D272E20006D0822006B02031882
:100C50003C2E6B08E33E8600013087000108ED075B
:100C60000318EE0A6E08EA00ED070318EE0AEE011B
:100C7000EB0A0319EC0A1A2E6D09ED00EE012000B3
:100C80004C08ED00EE0122006E0820006E06031DE8
:100C90004D2E22006D0820006D0603195F2ECD0138
:100CA0002100D301D30A20004408023A031D0800A2
:100CB0004208033A031D08000330C4000800210065
:100CC000CB10C8012000CD018F26803120004408C0
:100CD000023A031D08004208033A031D08000430CD
:100CE000C400080021002A0820004C060319842EA5
:100CF000FC30CD012100C705D301D30A2000440BED
:100D000008004208023A5A2ECD01440B8D2E4208AB
:100D1000023A031D8D2E0230C400392F0800EF2E39
:100D200051278031F401F5018E27803120004608DB
:100D300079020318A32E7908513E860001308700FE
:100D400075278031962E8931DC2120004714080058
:100D500051278031F401F5018E27803120004608AB
:100D600079020318C42E6F08F600A430F635F63564
:100D7000F6357607F70079087707F8008600013026
:100D8000870075278031AE2E8931DC21803120002B
:100D90006F086F076F075C3E860001308700811483
:100DA000E52EFF302100E7000800FF302100E800B9
:100DB0000800FF302100E9000800FF302100EB00AF
:100DC0000800FF302100EA0008006F0884000530A9
:100DD00004020318080098310435363E82006F087B
:100DE000FB3A0319902E043A0319F72EA82E080097
:100DF000D201200030082100B80020002F08210077
:100E0000B700200034082100BA0020003308210078
:100E1000B9002000AF01B001FF30B300B4000430CE
:100E20007015F0147014F0127013D70157020318E4
:100E3000312F5735213E860000308701C03FC13F2A
:100E40005708AD3E860081015708493E86000130B3
:100E5000870081015708453E860004308101D70A8A
:100E6000162FC001F01171107012F0137112F111F0
:100E700008005127803143083C3A031D0800210037
:100E8000DF08031D08002000AB15080074082907BF
:100E9000E20075082A3DE3006208860063088700C7
:100EA00008002C08FF39031D2B152C0843060039B8
:100EB0004306AC00AB1408004108F4000630F5010D
:100EC000F600F7010800A0002100D101F401F40AA6
:100ED000F501F601080020004208CB004108CA00D5
:100EE0000230F400F501F60108007908E33E8400C1
:100EF0000130850000088100F90A080086000130F1
:100F000087006108C03F6208C13F080084000130CB
:100F10008500403F803F413F813F08007508210028
:100F2000B4007408B300F9010800EC00ED000330D0
:100F3000C1012000C400080076082000E200750806
:100F4000E10062040800F400F5014A08F600080018
:100F50000330F400F501F60108009031E7289031E4
:100F6000F5289131382991314E2991315E299131FD
:100F7000682991317229913185299131A3299331C1
:100F8000942B9231242A92312E2A92313C2A92318A
:100F9000552A9231602A92316E2A9231BC2A9231BE
:100FA000C72A9231D52A9231EF2A9231FA2A933107
:100FB000082B9131B6299131C6299131D429933129
:100FC000572B9331642B9331722B9331892B9031B2
:100FD000E6289331A22B9031E628913149299331AB
:100FE000A72B95318E2D9631D42E97310D2F973119
:100FF000302F9731652F9731412F97317A2F080085
:10100000FF3FFF3FF401F50108000B3402340134C7
:10101000013400340034003400340034003400342F
:101020000034003400340034FF34FF34FF34FF3424
:10103000FF34003400340034FF34FF34FF34FF3415
:10104000FF34003400340034FF34FF34FF34FF3405
:10105000FF34003400348034FF34FF34FF34FF3475
:10106000FF343C34003400340834E83403342300C3
:101070001D082100CA000630CA05230019082000F7
:10108000CC002100CA08031D692820004D08053A3C
:10109000031D612821002A0820004C06031960283E
:1010A000FC30CD012100C705D301D30A2000440B39
:1010B00008004208023A031D08000330C40008007B
:1010C00093284808031966282B16080021004914A4
:1010D0000800CA1C752823001D122000CD01210024
:1010E000D301D30A23001D1608004A1D0800200062
:1010F000CC08031D8428CD01CD0A2100420B080035
:10110000553023009A0008004D08031908000330E9
:101110004D02031C8E282100D301D30A2000CD01EB
:101120002100C2010800210047080339013A031DCC
:101130009C282908A320080047080339023A031D08
:1011400008002C08C428F20005302000CD007208E9
:1011500086000130870001082100AA0023009E1E9E
:101160009E167208860001089A00720A2100A900E2
:10117000A8034708FC390138C700A808031D080068
:10118000FC390238C7000800F20006302000CD000C
:10119000720823009A009E1E9E1672082100AA0063
:1011A000FC30C7050800EB00C3003929FB30EF0015
:1011B0006B082300E2000830F4000D304829450890
:1011C00003190800C5016B082300E200DF3020008E
:1011D000E6000830E701E8000D3054295B30EC00F0
:1011E000EA016C0886000130870001086B06031DC8
:1011F0002E296A08EF006C0A8600811F012914302D
:1012000002290D30E9006C0A86000130870043088E
:10121000011C23292300E20020006A0809070907AE
:101220000907A43EE6000130E7006C0886000130A3
:10123000423FE8006908542120006C0A8600013012
:101240008700811008002300E20020006C0886005F
:1012500001308700423FF40069084829FF30EF0061
:101260000330EC070530EA0A6A02031CF128CD01BD
:1012700008006B083C3A0319DF28413A0319D628C5
:10128000C23A03194729413A03194729EE280800B1
:10129000F50074082000C6002100CE007508CF00BC
:1012A00003302000CD000800FB0021000530AB0119
:1012B0002000CD0068082100A80020006808C600B2
:1012C0007B082100CF0020006708F7006608F600C1
:1012D0006808F80093218831200046082100CE00DC
:1012E000E3307229F40005302000CD007408860038
:1012F0000130870001082100AA0023009E1E9E16CF
:101300007408860001089A00740A2100A900A80345
:101310004708FC390138C700A808031D0800FC393C
:101320000238C7000800E201E301E10121004F0893
:10133000143A031DA029230062082000E200E30103
:10134000F401F50175082100B4007408B300200011
:10135000E401E5017808F900FA017A086502031D45
:10136000B329790864020318D6296408E33E86008D
:10137000013087006408760784006508773D8500A2
:10138000000881006408760786006508773D8700BD
:101390000108E2070318E30A6308E100E207031803
:1013A000E30AE301E40A0319E50AAA29DC21200083
:1013B00062092100AC00080021003408F500330860
:1013C000F400080021005408273A0319EB29163AC3
:1013D0000319EF294B2A02272100DC00080002270D
:1013E00040308331682389312000D800590821001A
:1013F0005C06031D122A20005908FF3A0319122A1D
:101400006023893174082000E9007508EA0007307C
:10141000EA36E90C890B082A69082100D700073051
:10142000D705352AFF302000D9002100681E352A53
:1014300023002C08FF3A0319312A2C082000D90078
:1014400023002D082100D7000730D70523002D08E1
:101450002000E900E936E936E9366908D8001F308E
:10146000D80521006812E811681136238931412A14
:101470004C2289314A2A0F302000D800C4228931F9
:101480004A2A21005708003A03193B2A073A031950
:10149000382A4A2A692B0800BA2A8B273830DB0001
:1014A00008008B273030DB0008008B270830DB007A
:1014B00008008B271030DB0008008B271830DB007A
:1014C00008008B272030DB0008008B272830DB004A
:1014D0000800DB01080059087F3A0319652AC03A61
:1014E0000319612A603A03195D2A283A0319592A17
:1014F0000C3A0319552A063A0319512A033A0319DB
:101500004D2A692ABE01BE0A08000230BE0008004A
:101510000530BE0008000430BE0008000330BE00E5
:101520000800BE01080059087F3A03198B2AC03A07
:1015300003198B2A603A03198B2A303A0319882A37
:10154000183A03198B2A0C3A03198B2A073A031904
:101550008E2A013A0319852A033A0319822A912A0D
:10156000F01C912A0F302100D50020005808DE0021
:10157000DB01912A20003D08013A03196B2A033A46
:101580000319932AB02A08002D2B0F302100D50013
:101590002000DE000830DB0008000730D52F0730C0
:1015A000CE2F0230D52F0230CE2F0830D52F083065
:1015B000CE2F59087F3A0319CF2AC03A0319CD2AF2
:1015C000603A0319D72A303A0319D52A183A031971
:1015D000D32A0C3A0319D12A063A0319C52A352B06
:1015E0000530BE0008000430BE000800BE01BE0A7F
:1015F00008000230BE0008000330BE000800BE0133
:10160000080059083F3A0319FC2A403A0319F92AFD
:10161000C03A0319F62A703A0319FC2A103A031942
:10162000F92A303A0319F62A1C3A0319FC2A043A1B
:101630000319F92A0C3A0319F62A063A0319F32A70
:10164000033A0319F02AFF2AF01CFF2A0F30210069
:10165000D5002000DE00DB01FF2A3D08013A031916
:10166000D92A033A0319012B242B0800532B5908BC
:1016700021005806031D402B02302000BD00080049
:101680002000BD0108005908210058060319080070
:10169000402B5908FF3A03190800BD01BD0A59083B
:1016A0002100D800080020003D08003A0319492B0A
:1016B000013A0319372B033A0319432B402B080037
:1016C00021009D149D18622B1C08F5001B08F400D6
:1016D0000800DD2EBF01BF0ACE01CE0AF01C0800B3
:1016E0002100D5012000B101B201DF0104305F0209
:1016F0000318AD2B5F35C82789310319AA2B013098
:10170000E3005F0A842BE335890B832B63085E05B6
:101710000319AA2B5F35213E59278931AA27893120
:10172000602789310318AA2B5F35383E922789310B
:101730003202031D9D2B630831020318AA2B5F356B
:10174000383E860001308700C3278931BA278931A6
:101750000318BE0A2000DF0A762B0430DF015F0287
:10176000031808005F35C82789310319E52B0130BC
:10177000E3005F0ABC2BE335890BBB2B63085E05D6
:101780000319E52B5F35213E5927893121003E029F
:10179000031DCE2B2000630821003D020318E52B1A
:1017A00020005F35213E59278931AA2789316027DA
:1017B00089310318E52B0130E3005F0AE02BE335A4
:1017C000890BDF2B63082100D50420000430DF0AD9
:1017D000AF2B0230BF00CE00F01C08002100F6271E
:1017E00089310430DF015F020318262C5F35C827DA
:1017F00089310319222C0130E3005F0A002CE33504
:10180000890BFF2B63085E050319222C5F359A278D
:1018100089317C278931712789310318222C5F3562
:10182000283E922789312E086402031D192C2D08A9
:1018300063020318222C5F359A278931B527893135
:101840009F27893120000430DF0AF32B0430DF01A9
:101850005F02031808005F35C827893103195E2C21
:101860000130E3005F0A352CE335890B342C630823
:101870005E0503195E2C5F35213E59278931210011
:101880003C0820006402031D492C21003B08200075
:10189000630203185E2C5F359A2789317C278931D2
:1018A0007127893103185E2C0130E3005F0A592C3F
:1018B000E335890B582C63082100D504200004303F
:1018C000DF0A282C0330FC2FF01C0800C008031D81
:1018D00008002003031908000530FC2FF01C080045
:1018E000C008031D0800BF012100C501C50A200072
:1018F000DF0104305F0203188E2C5B0881319221D6
:10190000893120005F35A03E860087017508C03F01
:101910007608C13FDB0ADB0ADF0A792CDF01BC0154
:10192000BC0A0800BF014E08033A031D9F2C333048
:101930005502031C9F2C04302100C500B12C4E0819
:10194000053A031DB12C0B305502031CB12C33306A
:101950005502031CAD2C0330AE2C02302100C50013
:10196000F1162000CE012000D501080020003E081D
:10197000013A03196A2B033A0319E92B013A0319B7
:10198000622C073A03196E2C013A0319642C922C2D
:101990000800BF01BF0A21000130C5012000A000DE
:1019A0003030F114DB000800BF010800BF01210046
:1019B000C50108006530BF01D50A5502031C0800A7
:1019C0002100C501080020003E08013A0319C92C76
:1019D000033A0319D62C013A0319D42C073A0319F8
:1019E000D62C013A0319D62CDA2C2000BF01392D50
:1019F0008131A3218931C501B32CF11E0800DF011B
:101A000004305F020318262D5F35C827893103197A
:101A1000222D0130E3005F0A0E2DE335890B0D2DD9
:101A200063085E050319222D5F35213E5927893150
:101A3000F4005B08E9268931E7278931E9268931F5
:101A40002000232DDB0ADB0ADF0A002D2300951876
:101A5000262DF1120800F11EE02CD50A4E08053A99
:101A6000031D08001530DD2C2100C5012000D50123
:101A700008003E08003A03192B2D043A0319FD2CE7
:101A8000013A0319F82C342D2000BF01802DF11EDE
:101A90000800DF0104305F020318702D5F35C8278E
:101AA000893103196C2D0130E3005F0A582DE335AD
:101AB000890B572D63085E0503196C2D5F35213E98
:101AC00059278931F4005B08E9268931E7278931F4
:101AD000E926893120006D2DDB0ADB0ADF0A4A2D59
:101AE0002300951C292D702DF11EF82CD50A4E08C7
:101AF000053A031D080015305502031C0800342D5B
:101B00003E08003A0319742D013A0319472D033A90
:101B10000319472D063A0319472D013A0319F82CEA
:101B2000342D20003E08043A031DD62EC0080319A8
:101B3000CC2ED62EBC012100F6278931B101B2018D
:101B4000DF0104305F020318DE2D5F35A03EF12770
:101B500089310319DB2D0130E3005F0AB02DE33535
:101B6000890BAF2D63085E050319DB2D5F35A03EA1
:101B7000592789316308913EE500FF30643DB02765
:101B80008931712789310318DB2D0430BC005F35A2
:101B9000A03E592789312E086402031DD12D2D083E
:101BA00063020318DB2D5F35A03E86008701B52751
:101BB00089319F2789312000DF0AA12DBC08031D30
:101BC0001C2EDF0104305F0203181C2E5F35A03E7F
:101BD000F12789310319192E0130E3005F0AF12D35
:101BE000E335890BF02D63085E050319192E5F3567
:101BF000213E592789315F35A03E86006027893113
:101C00000318192E0230BC005F35A03E59278931D8
:101C10003202031D0D2E630831020318192E5F35A1
:101C2000A03E86008701C3278931BA27893103186E
:101C3000BE0A2000DF0AE22D0430DF015F02031834
:101C400008005F35A03EF12789310319AC2E013021
:101C5000E3005F0A2C2EE335890B2B2E63085E050B
:101C60000319AC2E3C08043A031D752E5F35213E46
:101C70005927893121003C0820006402031D442EAD
:101C800021003B08200063020318752E5F35213EBA
:101C9000592789315F35A03E8600403FE500413F2E
:101CA000E6006508913EE700FF30663DE800640805
:101CB0006802031D5D2E63086702031C752E5F35E5
:101CC000283E922789315F35A03E86008701DC27B8
:101CD00089310318752E0130E3005F0A702EE33559
:101CE000890B6F2E63082100D50420003C08023ABE
:101CF000031DAC2E5F35213E5927893121003E025C
:101D0000031D862E2000630821003D020318AC2E1F
:101D100020005F35A03E5927893163086F3EE500FA
:101D20000030643DB027893171278931031CAC2E06
:101D30005F35A03E59278931AA278931DC278931AF
:101D40000318AC2E0130E3005F0AA72EE335890BA0
:101D5000A62E63082100D50420000430DF0A1E2EC1
:101D60000530BC000230BF000800F01CBD2EBC01D5
:101D7000BC0ABF01711FDF0A08000230BF00080063
:101D80000330BC00BF01BF0A0800F01CC22EB72EF2
:101D90000F302100D50008003C0884000630040202
:101DA0000318080098310435203E82008131A321B8
:101DB0008931C5012000BF01C82E210045088400DB
:101DC000053004020318E02C983104352C3E8200C3
:101DD0000800F50023009518EA2E7508910092017D
:101DE000740893003F30950503108B1B03148B136D
:101DF000151555309600AA30960095141511031844
:101E00008B170800003020000D180130E90059063A
:101E1000FE396906D90000308D180130E900E90D5E
:101E200059086906FD396906D90000300D190130DD
:101E3000E900E90DE90D59086906FB396906D90081
:101E400000308D190130E900E90DE90DE90D59085F
:101E50006906F7396906D90000308D1B0130E900A9
:101E6000E90E59086906EF396906D90000300D1BE3
:101E70000130E900E90EE90D59086906DF39690604
:101E8000D900003090190130E900E90EE90DE90DA3
:101E900059086906BF396906D90000308E1801302B
:101EA000E900E90CE90C590869067F396906D9008F
:101EB000080086008701403FE300413FE40008003E
:101EC000403FE500413FE60065086F3EE700003017
:101ED000663DE80064086802031D080063086702A5
:101EE0000800403FE700413FE80066086802031D24
:101EF0000800650867020800403FE300413FE40036
:101F00006308913EE500FF30643DE6005F35213E09
:101F100086008701080058082100D50020005808D5
:101F2000DE000800860001308700403FE300413FAB
:101F3000E4000800283E86000130870008002100E8
:101F4000BC0020002D082100BB009130BB07FF30F2
:101F5000BC3D08005F35383E860001308700080030
:101F6000E6005F35213E86000800403FAD00413F5E
:101F7000AE0008002100BE00200031082100BD0095
:101F80006F30BD070800403FB100413FB20008007C
:101F9000213E860087011600010408002100D500BB
:101FA0002000DE003030DB0008002100D5002000DA
:101FB000DE003830DB000800403FE500413FE6002E
:101FC00064086602031D080063086502080020001B
:101FD000DB0A5F35213E860087010108F4005B08BB
:101FE000080086008701160001040800FF30D501B3
:101FF0002000AD00AE000800BF01D50ACE000800E9
:102000008031CC288031D5288031DB288031E1280F
:102010008031E7288031ED288031F3288031F9289C
:102020008031D4288031D4288031D4288031D428FC
:1020300081310E2981310E2981310E2981310E29FC
:1020400081310E298031D4288231982A82319B2A0D
:1020500082319D2A82319F2A8231A12A8231A32A8C
:102060008231A52A8231A72A8231A92A8231AB2A5C
:102070008231AD2A8231AF2A8231B12A8231B32A2C
:102080008231B52A8231B72AFF3FFF3F64008001C9
:102090000131890B472800342C34383480348134A2
:1020A0000834C13480340334503480340334113460
:1020B00081340334923481340334803400348034E6
:1020C0000834C83400348034003480340834C834D0
:1020D0000034453452340134003441340234013484
:1020E00001340034003400340034453452340134B7
:1020F00000344634033409340934003400340034E5
:1021000000340134003411340234003450340334C8
:102110000034923404340034113405340034C134B2
:102120007D34003400340834E8340334113400348E
:102130008034033432340034503400348034033477
:1021400032340034503400348034033432340034B8
:10215000503400348034033432340034503400348A
:102160008034033432340034503400348034033447
:102170003234003450340034803403343234003488
:10218000503400348034033432340034503400345A
:102190008034033432340034C134003480340334A6
:1021A000323400349234003480340334F434013453
:1021B00021006E08FF3E031C080084002230040248
:1021C0000318080087310435AD3E82000800200066
:1021D00020080A3A031D0800C508031D0800023044
:1021E00047102100EE00D10A0800FF30DF00200078
:1021F000D201AD00AE002200CD00CE0020000430A0
:10220000E001600203180B296035303E1024903144
:102210000430E00A0129E0010430600203181629A5
:102220006035283E10249031E00A0C29B101B2013A
:102230002200CF01D0012000E00104306002031829
:1022400028296035D23E86000130232490311D2993
:10225000E00104306002031834296035383E8600FE
:10226000013023249031292903302100EE00080099
:102270000730E00020000230C501C50A21005102EC
:10228000031C45290430EE0008002100EE01EE0A8F
:102290000800D030DF000430EE0008002000C50840
:1022A000031D080021000730E001E00AE1002000E2
:1022B0000530C501C50A2100EE0008002000C50850
:1022C000031D0800D0302100DF000630EE000800BA
:1022D0000230E00020000730C501C50A4710210088
:1022E000EE0008002000C508031D08005408023A4B
:1022F000031D08000230D1000830D3012100EE0098
:10230000DA012000BB01BB0A080020003B08023AAA
:10231000031D92292100DA012000BB0109302100B0
:10232000EE0008000A305302031C9B291F302100D5
:10233000EE002100292C5108043A031DA129D30ADB
:102340008E29D30A08002000D101471CB02947106C
:102350002100DA0120001730BB012100EE00080047
:102360000A305302031CA1290A3097292000C5080E
:10237000031D080006302100E0000930E10018309C
:10238000E201EE002000C501C50A08002000C508D2
:10239000031D08005408023A031D0800D301210060
:1023A000DA01200019300B2C20003B08023A031DF3
:1023B000DE292100DA012000BB0145290A30530241
:1023C000031CE6292100EE01EE0A292C5108043AEB
:1023D000031DEF29D1010A302100EE000800471C3F
:1023E000A12922005108093A0319112A1E2A04249E
:1023F000903102308100E001E00A1C2A042490316F
:10240000043081000230092A042490310830810010
:102410000330E0001C2A042490318101810AE0018C
:102420001C2A5208023A0319F729013A0319FE2916
:10243000073A0319042A0B2A0B301F2A0A302100FD
:10244000EE002000471099292000C508031D080050
:1024500006302100E0000C30E100C0292000C50852
:10246000031D08005408023A031D0800D30121008F
:10247000DA0120000D300B2C20003B08023A031932
:10248000D9290A3053020318E2295108043A0319E2
:10249000EA29471CA129220051080C3A031D1E2AD3
:1024A00052082000BA000E30ED2A2000C508031D96
:1024B000080006302100E0000D30E1000F30C02997
:1024C0002000C508031D08005408023A031D080037
:1024D000D3012100DA01200010300B2C20003B0832
:1024E000023A0319D9290A3053020318E229510884
:1024F000043A0319EA29471CA129220051080D3A80
:10250000031D1E2A52082000B9070318BA0A220028
:102510004E0820003A02031D912A22004D08200097
:1025200039020318A62A3A082200CE0020003908F2
:102530002200CD0020003A082100BC00200039080C
:102540002100BB00B830BB07FF30BC3D2000603528
:10255000303E860001301D2490313A02031DB22A1C
:10256000630839020318BA2A6035303E860001300C
:102570001724903111301F2A2000C508031D0800C0
:1025800006302100E0000A30E1001230C0292000AE
:10259000C508031D08005408023A031D0800D301B2
:1025A0002100DA01200013300B2C20003B08023AF6
:1025B0000319D9290A3053020318E2295108043AB1
:1025C0000319EA29471CA129220051080A3A031DD0
:1025D0001E2A52082000BA001430B9011F2A200018
:1025E000C508031D080006302100E0000B30E100A3
:1025F0001530C0292000C508031D08005408023A00
:10260000031D0800D3012100DA01200016300B2C35
:1026100020003B08023A0319D9290A305302031853
:10262000E2295108043A0319EA29471CA12922008A
:1026300051080B3A031D1E2A52082000B90703183F
:10264000BA0A3A0822005002031D2A2B200039083A
:1026500022004F020318402B20003A082200D0002D
:10266000200039082200CF0020003A082100BE00D7
:10267000200039082100BD006F30BD070318BE0AD5
:1026800020006035D23E860001301D2490313A088A
:102690006402031D4D2B390863020318552B603566
:1026A000D23E86000130172490311A301F2A2000B4
:1026B000C508031D080004302100E0002000520876
:1026C0002100E1001B30C0292000C508031D0800BF
:1026D0005408023A031D0800D3012100DA0120004A
:1026E0001C300B2C20003B08023A0319D9290A3070
:1026F00053020318E2295108043A0319EA29471C36
:10270000A1292200520820005206031D1E2A1D3056
:102710001F2A0830200052020318902BD20AEB29FE
:1027200022302100EE0008005F08D03A031D9C2BE8
:10273000DF010630EE0008000830DF0A5F02031CEC
:10274000992B49295F08D03A0319902BEB292000D7
:10275000C5014710DC010930DC0A5C020318DF2BDD
:102760000630F4005C08F8239031A03E8600023069
:1027700087005030C03F0030C13FAB2BCF30250029
:10278000D000D1018E302500CA00CB010D302500CC
:10279000C400C5014C302500BE00BF018B302500B0
:1027A000B800B901CA302500B200B3014930250094
:1027B000AC00AD0108302500A600A701EC2B5208A3
:1027C000FF3E031CEC2B8400083004020318EC2BA2
:1027D00098310435103E82002000A001F401F5017B
:1027E000F6018431E9242100EE01EE0A8131A329AA
:1027F000F600F50174087618F507F435F636F60894
:10280000031DFA2B7508080020005208DA3E8600E6
:10281000013087000800BB01BB0A2100EE00080060
:10282000860001308700FF30C03FC13F08008700AD
:102830003908C03F3A08C13F08008700403FE30025
:10284000413FE400080087000030C03FC13FE00A7C
:102850000800DA012000BB010800E910E911691243
:1028600069115908503A031D372CF117080059080F
:102870000F39F83EDD00DA3E86000130870001089E
:102880002000E0004D2CD7015B2CD701D70A5B2C30
:1028900002304B2C0330D7005B2C6008013A03193F
:1028A000432C033A0319452C063A0319482C0C3AD9
:1028B00003194A2C5B2C21005508200060050319E0
:1028C0008C2C23003508F600F701F700F601760896
:1028D00034042000B5007708B60023003608F6005F
:1028E0000530F636890B712C76082000D0000330B5
:1028F000D005230036082100CC000730CC0523008A
:102900003608F600F636F636F63676082000CF00A2
:102910000330CF05A924943120005735213E86008D
:102920008701403FF600413FF7002300350877025A
:10293000031D9C2C3408760203180800200057352C
:10294000213E8600870123003408C03F3508C13F7F
:102950000800701736083002031DB02C35082F020E
:102960000318CA2C3608B0003508AF0030082E0214
:10297000031DBC2C2F082D02031CF01521003C0860
:1029800020003002031DC82C21003B0820002F022C
:102990000318711434083602031DD02C3308350295
:1029A0000318072D3608B4003508B3003208340286
:1029B000031DDC2C31083302031C7016340821007F
:1029C0003E02031DE72C2000330821003D02031CBA
:1029D000072DF017072D20005708AD3E8600870110
:1029E000500801020318F92C5708AD3E8600500824
:1029F00081007011052D7011F010192DF01070105C
:102A0000F016192D042D7011F0107010192D2100E1
:102A10004C08003A0319EB2C013A0319FB2C033A3A
:102A20000319022D013A0319FE2C063A0319022D4F
:102A3000032D21004C0803190800023020004F022A
:102A4000031C522D4F08033A031D302D0130F500B1
:102A5000570A2B2DF535890B2A2D75082100D60430
:102A600020005708493E8600013087004F08810743
:102A70005708493E860005300102031C522D6008AC
:102A8000210056050319522D20005708AD3E86003F
:102A90008701010850020318522D5708AD3E8600E9
:102AA0000108D00020005708453E8600013087000D
:102AB000500801020318612D5708453E8600500852
:102AC00081005008B42F0B3021005B02031CDB0A8D
:102AD000200052082100520203187E2D0330D00A34
:102AE0005002031C872F0B305B0203187A2D7115DF
:102AF000DB01872F0130B4279431872F5208200043
:102B000052020318882D0130B4279431F117872F12
:102B1000210050080319872FD001872FDA08031DE1
:102B2000152E21003F0BD72D200030082100380240
:102B3000031D9E2D20002F08210037020318F115D8
:102B40003A0820003402031DA92D21003908200075
:102B50003302031C152E3408F8003308F700210057
:102B60003908F7023A08CD2794310318F80A2000F3
:102B700033087B3EF5000030343DF6003008760225
:102B8000031DC42D2F0875020318CD2D3408B8007D
:102B90003308EF2794317116152E3008B8002F082E
:102BA000EF2794311E30B7070318B80A152E3A08DC
:102BB00020003402031DE02D2100390820003302DB
:102BC0000318F115300821003802031DEB2D2000F9
:102BD0002F0821003702031C152E3808F80037088B
:102BE000F70020002F08F7023008CD279431031892
:102BF000F80A33082F02F5003408303BF6000030A5
:102C000076027C3003197502031C0C2E3008B800C4
:102C10002F08F5279431CB2D3408B8003308F52759
:102C20009431E230B707FF30B83D02302000400257
:102C3000031C3C2E0430D601D70157020318352E51
:102C40005708453E86000130870002300102031C10
:102C5000322E0130F500570A2E2EF535890B2D2E18
:102C60007508D6040430D70A1D2E21003F08C00085
:102C7000BC2794310230772F701D4F2E400B4F2E02
:102C800003305A0203184F2E03302100CD002000DC
:102C9000E92794312100B5002000DA0A922FF01EB6
:102CA000552E03305A02031C442E03305A02031CD3
:102CB000CC2E2100CD012000C72794312100B50082
:102CC0002000DA01922FF01D672E711E592EF01888
:102CD000711C6C2E711E592E4008031D592E70193F
:102CE000711C8B2E711A8B2E0330FB279431031D20
:102CF000482EF11D832E30082E02031D812E2F0831
:102D00002D020318872E2E08B8002D08B72E300884
:102D1000B8002F08B72E02302100DF2794315E2E35
:102D2000701E942E711E592EF018F01F992E711ED0
:102D3000592E4008031D592E7019F01FB92E711A13
:102D4000B92E0330FB279431031D482EF11DB02E00
:102D500032083402031DAE2E310833020318B42E9C
:102D60003208B8003108B72E3408B8003308B7006D
:102D7000482E2100CD01CD0ABF015B2E7019442ED3
:102D8000F01C592E2100BC279431DA012300461390
:102D900046172200E814922F3F08013A0319902E9B
:102DA000033A0319632EBE2E0F302100D500042FE5
:102DB0007018F118E62E2100CD012000DA01C72796
:102DC00094312100B5002000A001922F2100CD01F7
:102DD0002000DA01C72794312100B500C62E400833
:102DE0000319FB2E2100CD012000DA01C727943101
:102DF0002100B500922F2100CD01CD0A2000DA017B
:102E00002100B501B601922F20003F08003A0319B6
:102E1000D82E013A0319EF2EF22E56082100D500C4
:102E200020004008033A031D1E2F02305A02031CE3
:102E30001E2F2100BC2794310330772FBF08031DBC
:102E40002A2F02305A02031C2A2F2100BC2794315A
:102E50000530772F2100CD012000C72794314A2E5D
:102E600056082100D500492F0230DF279431210078
:102E7000B500073020005A02031C4C2E20000430FD
:102E8000772F56082100D50020003F080319522F44
:102E90002100400B342FCD01CD0ABF012000C727F0
:102EA0009431372F5A080319592E2100400B5F2FF8
:102EB000CD01CD0ABF012000C7279431622F023017
:102EC000DF2794312100B5003E2F56082100D500A0
:102ED000033020005A020330031C452E2100CD0090
:102EE0002000E92794312100B50020000630DA01E6
:102EF000A000922F56082100D5002000BF08031D16
:102F0000592E2100BC279431DA01A001C62E2000E1
:102F100020088400073004020318922F87310435FB
:102F2000F13E8200C3302300C60521005508090781
:102F300009072300C6042200E8142300C401C501C8
:102F4000210035082300C404210036082300C504ED
:102F50002200FC30E8142300C60521004D082300A0
:102F6000C6042200E8140800F40020004002031800
:102F700008007408C0000800CD01200030082100BE
:102F8000B60020002F082100B500200008003008FE
:102F90002100B60020002F080800F83B0F30F70290
:102FA0000030F83B7808F6007708F500F535F60DA7
:102FB0007508F7077608F83D1830F7070800CD00C8
:102FC000BF01BF0A200034082100B60020003308EA
:102FD000080038082100B600200037080800B700B4
:102FE0007708B7077808B83D0800B7007708B70238
:102FF0007808B83B08002100CD002000DA0808005E
:103000008031222880316C28803124288031C228E8
:1030100080312428813119298031242881313729B0
:103020009331DA2B9331D62B9331D22B9331CE2B94
:103030009331CA2B9331C62B9331C22B9331BE2BC4
:103040008E31C82E8D319A2D8E31C02E8E31C52EE7
:103050008E31B02E8E31B52E8C31B62C8D31912D16
:103060008C31F52C8D31442D8C31E32C8631D12ED1
:103070008631D52E8631D92E8631DD2E8631E12E50
:10308000FF3FFF3FFF3FFF3FFF3FFF3FFF3FFF3F50
:10309000FF3FFF3FFF3FFF3FFF3FFF3FFF3FFF3F40
:1030A000FF3FFF3FFF3FFF3FFF3FFF3FFF3FFF3F30
:1030B000FF3FFF3FFF3FFF3FFF3FFF3FFF3FFF3F20
:103FF000FF3FFF3FFE0012001E00FE0BFB2F0034B0
:10400000FF3FFF3FFF3FFF3FFF3FFF3FFF3FFF3FC0
:10401000FF3FFF3FFF3FFF3FFF3FFF3FFF3FFF3FB0
:10402000FF3FFF3FFF3FFF3FFF3FFF3FFF3FFF3FA0
:10403000FF3FFF3FFF3FFF3FFF3FFF3FFF3FFF3F90
:10700000B8310D28FF3FFF3FB8312000911E090025
:10701000BB313A23200091120900B83110289C2A74
:107020002130FA018400003085002730BB31D023A5
:10703000B831A0308400003085001030BB31D0233F
:10704000B831FF30FB00BA308400BB3085004830D7
:107050008600003087001630BB31D623B8312000BF
:107060003128D320B8316400200091100B178B1702
:107070002000911C38289110BB0A4120B8316400CF
:107080003828301C46285120B8313010D91C4A28E5
:10709000B601D91007303B02031C08004922BB018E
:1070A0000800ED01EE013208003A0319D228013A36
:1070B00003196728033A03197C28013A0319802829
:1070C000073A03199028023A0319C828D2282F0832
:1070D000553A031D75280230B2002A0B08002D080E
:1070E00023009A002000AA01080001212000B2011B
:1070F000D213D217DC140800B20128162F08182961
:107100003D30F8003308F8022C087807F9008600B3
:1071100087012F088100B30B08000430B20008007B
:107120002F08C5003408143A031D99283C08ED00C7
:10713000EE01EB01EC012C08F800F90179086C0272
:10714000031DA42878086B020318B8286B083D3E7D
:10715000860087010108ED070318EE0A6E08EA00B1
:10716000ED070318EE0AEE01EB0A0319EC0A9B285F
:107170006D09ED00EE012F08F800F9016E0879069F
:10718000031DC4286D087806031D7628B201F52971
:1071900023082F060319D028FC30B201AE05782849
:1071A000B201402A08006400DB20B83123001F161A
:1071B00064009C2208007B30210099000B3097006E
:1071C000D2309500313020009B004C309C00C23002
:1071D000220097008C018D018E01033021008C006C
:1071E000CF308D0082308E00403023008C008D0126
:1071F00024008D019001903021009E0001309D00FF
:10720000080023009D131E121E159F15CF309B00F2
:107210009C019F101F109E119D111D169E12200093
:107220009112210091160B178B1723009D17080050
:10723000E800FA006D29FB30FB006808BC0008304C
:10724000F2000D308F292B0803190800AB016808E4
:10725000BC00A830E4000830E5000D307C2958302F
:10726000E900E70169088600870101086806031D37
:1072700062296708FB00690A8600811F41291430D2
:1072800042290D30E600690A860087017A08BC00B1
:10729000011C5B296708090709070907483EE40044
:1072A00069088600423FE50066087C21690A86007D
:1072B000870181100800690886008701423FF200BB
:1072C00066088F29FF30FB000330E9070230E70A28
:1072D0006702031C3229B201080068083C3A03190E
:1072E0001B29413A03192329C23A03197B29413A40
:1072F00003197B292F290800F7000530A401B200EB
:107300006508A1006508AC007708B4006508F400C2
:107310006408B621B8312C08B3003D309829F30039
:107320007208AC00B3007308B4000330B200080068
:10733000F2000530B2007208860087010108A30040
:1073400023009E1E9E167208860001089A00720A8B
:107350002000A200A1032E08FC390138AE00A108CC
:10736000031D0800FC390238AE000800DF00E00110
:10737000E101DE013408143A031DC1293C08E00094
:10738000E101F201F3017308A7007208A600E2010F
:10739000E3017408F500F60176086302031DD229A3
:1073A000750862020318F12962083D3E86008701D4
:1073B00062085F07F500840085010008810062080B
:1073C0005F07F50086000108E0070318E10A61087D
:1073D000DE00E0070318E10AE101E20A0319E30A0B
:1073E000C92935236009A5000800372A1A23B831B6
:1073F000F201F3012F23B8312C0877020318052A74
:107400007708A03E2523B831FC29352308001A232C
:10741000B831F201F3012F23B8312C087702031899
:107420001F2A7B08F4004830F435F435F43574072E
:10743000F50077087507F6002523B8310D2A3523A6
:10744000B8317B087B077B07593E86008701811492
:107450002F2AFF30C7000800FF30C60008007B0855
:10746000003A0319292A013A03192C2A3F2A7B08DA
:10747000FB3A0319F629043A03193F2A072A0800A0
:107480001A23B8315B087A06031D0800D213DC14F6
:107490000800802A8A22B8317208F4007308F500C7
:1074A0000730F536F40C890B512A74082000B80017
:1074B0000730B80540309322B8312000B500C4220F
:1074C000B831BA00882AC422B831B900F830D105E1
:1074D0003808D1040730DC14D1053508090709073D
:1074E0000907D104DC1439083A06031D7C2AD001AF
:1074F0003908D004DC14882AFF30D001D0007A2A61
:107500003608223A03194A2A0E3A0319632A882AAE
:10751000B60A080021009D149D188C2A1C08F3004F
:107520001B08F2000800F2002300910092011513DD
:107530009513151413080800C122B83121004530F5
:10754000B001B00AB601B60AB1005230B200413003
:10755000B301B30AB401B500F2017208A03E86007F
:10756000FF30870181007208A83E8600FF3081004D
:107570000830F20A7202031CAD2A2000A801A901FA
:1075800008002000B201012900300D180130F4007C
:107590003706FE397406B70000308D180130F4004C
:1075A000F40D37087406FD397406B70000300D1964
:1075B0000130F400F40DF40D37087406FB3974063D
:1075C000B70000308D190130F400F40DF40DF40D06
:1075D00037087406F7397406B70000308D1B013088
:1075E000F400F40E37087406EF397406B700003063
:1075F0000D1B0130F400F40EF40D37087406DF396A
:107600007406B700003090190130F400F40EF40D48
:10761000F40D37087406BF397406B70000308E18B1
:107620000130F400F40CF40C370874067F3974064A
:10763000B70008002908FF39031D281529087A0614
:1076400000397A06A900A814080086008701770887
:107650003D3E8400850100088100F70A0800730898
:10766000A7007208A600F70108002708F300260803
:10767000F200080023001D082000B1000630B1050B
:10768000230019082000AF00B108031D592B320850
:10769000053A031D572B23082F060319562BFC30E0
:1076A000B201AE05D213D217DC1408007F2B3014C0
:1076B0000800B11C652B23001D122000B201D2135B
:1076C000D217DC1423001D160800311D0800AF0876
:1076D000031D722BB201B20A2A0B08005530230099
:1076E0009A00080032080319080003303202031C14
:1076F0007C2BD213D217DC14B201AA0108002E0889
:107700000339013A031D872B22088E2308002E0817
:107710000339023A031D08002508AC2BF0000530A0
:10772000B2007008860087010108A30023009E1E96
:107730009E167008860001089A00700A2000A200B8
:10774000A1032E08FC390138AE00A108031D080072
:10775000FC390238AE000800F0000630B2007008B4
:1077600023009A009E1E9E1670082000A300FC3085
:10777000AE050800003400340034FF34FF34FF3419
:10778000FF34FF34003400340034FF34FF34FF345E
:10779000FF34FF34113480340334C1348134033472
:1077A000640080010131890BD12B0034FE001200EE
:1077B0001E00FE0BD72B0034F201F3010800640019
:1077C000080008000800FF3FFF3FFF3FFF3FFF3F6B
:1077D000FF3FFF3FFF3FFF3FFF3FFF3FFF3FFF3FB9
:1077E000FF3FFF3FFF3FFF3FFF3FFF3FFF3FFF3FA9
:1077F000FF3FFF3FFF3FFF3FFF3FFF3FFF3FFF3F99
:10780000FF3FFF3FFF3FFF3FFF3FFF3FFF3FFF3F88
:020000040001F9
:04000E00BC0FFC1A0D
:08000000803F843F803F853FF3
:10E000000E000E00FF00FF00FF00FF00FF00FF00FA
:10E010000000000000000000000000000000000000
:10E0200000000000000000000000000000000000F0
:10E0300000000000000000000000000000000000E0
:10E0400000000000000000000000000000000000D0
:10E0500000000000000000000000000000000000C0
:10E0600000000000000000000000000000000000B0
:10E0700000000000000000000000000000000000A0
:10E080000100FF00FF00FF00FF00FF00FF00FF0096
:10E09000FF00FF00FF00FF00FF00FF00FF00FF0088
:10E0A000FF00FF00FF00FF00FF00FF00FF00FF0078
:10E0B000FF00FF00FF00FF00FF00FF00FF00FF0068
:10E0C000FF00FF00FF00FF00FF00FF00FF00FF0058
:10E0D000FF00FF00FF00FF00FF00FF00FF00FF0048
:10E0E000FF00FF00FF00FF00FF00FF00FF00FF0038
:10E0F000FF00FF00FF00FF00FF00FF00FF00FF0028
:10E10000FF00FF00FF00FF00FF00FF00FF00FF0017
:10E11000FF00FF00FF00FF00FF00FF00FF00FF0007
:10E12000FF00FF00FF00FF00FF00FF00FF00FF00F7
:10E13000FF00FF00FF00FF00FF00FF00FF00FF00E7
:10E14000FF00FF00FF00FF00FF00FF00FF00FF00D7
:10E15000FF00FF00FF00FF00FF00FF00FF00FF00C7
:10E16000FF00FF00FF00FF00FF00FF00FF00FF00B7
:10E17000FF00FF00FF00FF00FF00FF00FF00FF00A7
:10E18000FF00FF00FF00FF00FF00FF00FF00FF0097
:10E19000FF00FF00FF00FF00FF00FF00FF00FF0087
:10E1A000FF00FF00FF00FF00FF00FF00FF00FF0077
:10E1B000FF00FF00FF00FF00FF00FF00FF00FF0067
:10E1C000FF00FF00FF00FF00FF00FF00FF00FF0057
:10E1D000FF00FF00FF00FF00FF00FF00FF00FF0047
:10E1E000FF00FF00FF00FF00FF00FF00FF00FF0037
:10E1F000FF00FF00FF00FF00FF00FF00FF00FF0027
:00000001FF
